:020000040800F2
:10000000884F0020A5260008290400082B040008BA
:100010002F04000833040008370400080000000023
:100020000000000000000000000000003B04000889
:100030003D040008000000003F04000841040008DF
:10004000BF260008BF260008BF260008BF260008FC
:10005000BF260008BF260008BF260008BF260008EC
:10006000BF260008BF260008BF260008BF260008DC
:10007000BF260008BF260008BF260008BF260008CC
:10008000BF260008BF260008BF26000865620008DA
:100090006D620008BF260008BF260008BF260008C2
:1000A000BF260008BF260008BF260008BF2600089C
:1000B000BF260008BF26000849B50008BF26000873
:1000C000BF260008BF260008BF260008BF2600087C
:1000D000BF26000819260008BF26000825060008CC
:1000E000BF260008BF26000875620008BF2600086A
:1000F000BF260008BF260008BF260008BF2600084C
:10010000BF260008BF260008BF260008BF2600083B
:10011000BF260008BF260008BF260008BF2600082B
:10012000BF260008BF260008BF260008BF2600081B
:1001300000F002F800F06BF80AA090E8000C82448E
:100140008344AAF10107DA4501D100F060F8AFF26B
:10015000090EBAE80F0013F0010F18BFFB1A43F0A5
:10016000010318475CBE01007CBE01000A444FF049
:10017000000C10F8013B13F0070408BF10F8014B06
:100180001D1108BF10F8015B641E05D010F8016B4B
:10019000641E01F8016BF9D113F0080F1EBF10F8AF
:1001A000014BAD1C0C1B09D16D1E58BF01F801CBD2
:1001B000FAD505E014F8016B01F8016B6D1EF9D555
:1001C0009142D6D37047000000230024002500266A
:1001D000103A28BF78C1FBD8520728BF30C148BFAA
:1001E0000B60704764290BF0AD8775290BF0AA8767
:1001F00078290BF0E38763290CF0128273290CF045
:100200001782002070471FB51FBD10B510BD0CF040
:1002100041FA1146FFF7F7FF00F02DF80CF05FFAF6
:1002200003B4FFF7F2FF03BC02F098F910B50446DF
:100230000121042002F072FD3CB15448006880B2F4
:1002400020F002005149086014E05048006880B274
:1002500040F002004D4908604D48006820F47F20BE
:100260004B4908600846006840F44C3008600020A4
:100270004849086010BD08B502F06AF902F0FEF8BE
:100280004FF4E13002F079F900F0CEFF00F0F4FF16
:1002900001F041FE4FF6FF704FF478433EA200217B
:1002A0000090084601F0EFFF414841684820884728
:1002B00004F043F906F0A8FE01F0ECF800F0C3F9F1
:1002C0003C4800884EF61671884203D03AA00BF0E5
:1002D000DDFE1CE03C49012208683CA108F0CDFE8F
:1002E0004FF4000000213A4A03C2C01239490860A5
:1002F00008460468364822460023D0E900512846C3
:100300000BF09FFE3449086034A00BF0BFFE4FF4A1
:10031000487002F0F0F80020FFF788FF4FF4967065
:1003200002F0E9F80120FFF781FF32A00BF0AEFEEA
:100330004FF6FF704FF4784333A20E210090002057
:1003400001F0A1FF4FF4007004F086F93349086012
:10035000402004F081F93249086005F098FD05F06D
:100360007BFD04F04BFF4FF4FA7002F0C4F801205B
:1003700008491039086000202A49C1F8880104E0C2
:10038000322002F094F800F0E0FAF9E7405C004017
:1003900004080140B00121422020202075706461D2
:1003A0007465206170702020202020202000000033
:1003B000A804002032000020573235513634204541
:1003C00072726F722100000084030020303A000036
:1003D0008800002090000020940000205350492005
:1003E000464C4153482053697A653A323034384B91
:1003F0004200000055534220436F6E6E656374697E
:100400006E672E2E2E00000055534220436F6E6EF5
:10041000656374696E672E2E00000000A80000203E
:100420004401002000802242704700BFFEE700BF69
:10043000FEE700BFFEE700BFFEE77047704770476A
:10044000704700000CB50020019000906C480068D7
:1004500040F480306A49086000BF6948006800F4D1
:10046000003000900198401C0190009818B9019844
:10047000B0F5A06FF1D16248006800F4003010B10F
:100480000120009001E0002000900098012843D155
:100490005C48006840F010005A490860084600684F
:1004A00020F0030008600846006840F00200086081
:1004B00053484068524948600846406848600846CA
:1004C000406840F4806048600846406820F47C1032
:1004D00048600846406840F4E810486008460068F4
:1004E00040F08070086000BF4548006800F0007070
:1004F0000028F9D04248406820F003004049486095
:100500000846406840F00200486000BF3C48406830
:1005100000F00C000828F9D10CBD10B5FFF792FFD0
:1005200010BD10B53648006840F00100344908603D
:100530000846406834490840314948600846006828
:10054000324908402E4908600846006820F480209F
:1005500008600846406820F4FE0048604FF41F0021
:100560008860FFF7DAFF4FF000602949086010BD8E
:1005700010B5002100200022214B5B6803F00C0124
:1005800021B1042906D0082928D107E0214B224CAB
:10059000236027E01F4B204C236023E0184B5B684F
:1005A00003F47010164B5B6803F48032022303EBF4
:1005B000904022B9194B4343174C23600DE0104B78
:1005C0005B6803F4003323B1144B4343124C2360A4
:1005D00003E0104B4343104C236003E00D4B0E4CE3
:1005E000236000BF00BF064B5B68C3F303130C4CD2
:1005F000E15C094B1B68CB40074C236010BD000039
:1006000000100240002002400000FFF8FFFFF6FE4D
:1006100008ED00E000127A000000002000093D0013
:100620000400002010B540F22551FD4802F09AFD6B
:1006300040B1FB4802F016FDC4B2FA480470012034
:10064000F949087010BD00B587B00121880402F097
:1006500072FB0121082002F061FBF14802F0C2FBAD
:100660004FF48060ADF8180003208DF81A001820B0
:100670008DF81B0006A9ED4802F094F84FF40060D5
:10068000ADF8180004208DF81B0006A9E74802F019
:1006900089F827208DF8040003208DF805008DF8D7
:1006A000060001208DF8070001A802F0A4FD4FF418
:1006B000E12002904FF48050ADF80C000020ADF81E
:1006C0000E004FF48060ADF810000020ADF814006B
:1006D0000C20ADF8120002A9D14802F0C6FBD048A8
:1006E0000C30028800880112D1A00BF0CFFC01224F
:1006F00040F22551CA4802F050FC0121C84802F0DE
:1007000040FC4021C64802F024FD4FF4C040ADF843
:10071000180010208DF81B0003208DF81A0006A980
:10072000C24802F03FF84FF4C041C04802F0E7F879
:1007300007B000BD10B5044600BF8021B84802F0E4
:10074000FBFC0028F9D0E1B2B54802F087FC204656
:1007500010BD2DE9F04105460E460027002406E0B5
:10076000285DFFF7E7FF285D4740601CC4B2B44234
:10077000F6DB3846FFF7DEFF3846BDE8F0812DE9AD
:10078000F04106460C460027601EFFF7D3FF601EAF
:10079000C7B2002506E0705DFFF7CCFF705D4740F3
:1007A000681CC5B2A542F6DB3846FFF7C3FF3846E2
:1007B000BDE8F0812DE9FC5F044600254FF01C0ADE
:1007C000302001904FF0000B14B90220BDE8FC9FCF
:1007D0000020207040F2FF109A49C861C86903F0F8
:1007E0003BFF984988610027B94697A1974809F0CF
:1007F000FEF80646002E7AD174E09249934809F03B
:1008000045F9064616B98F48407A00B96BE08D4825
:100810008088B8420ADD8B488069007810B1894829
:10082000806901E087480930804611E0854880886A
:10083000B8420DD18348C088484509DD81488069A8
:10084000007810B17F48806901E07E480930804619
:1008500041467FA00BF01AFC2078401C20702078C5
:10086000012800D13EE04FF6FF704FF4784300902E
:1008700051460020019A01F0BEFC0198401CC0B214
:1008800001904FF6FF704FF478433A2251460090A2
:10089000072001F0B0FC4FF6FF701F23424651467F
:1008A00000900E2001F0EFFC0AF10E0000F0FF0AAC
:1008B0002078801EC0EB001040064FEA106B002528
:1008C0000CE018F8050005EB0B01654A5054104682
:1008D000405D08B904E00AE0681C85B21E2DF0DB1B
:1008E00000BF00BF89E700BF2078401E2070554937
:1008F000886903F0A5FE304668E710B559480178CD
:1009000059A00BF0C3FB00205649087001205B4939
:10091000087000205A4908705A4908705A490860FE
:1009200001205A49C1F8B40100205949086001204A
:10093000584908600020584908605848006808F085
:10094000EAFE10BD4748007870472DE9FE430026B7
:10095000B1464B480078012810D151480178007801
:10096000401C4F4A1070C82908DD0020114608704D
:1009700048480068C0434B49C1F8880139480078AD
:100980000B284AD2DFE800F006FDFCFBFAF9F8F785
:10099000F6F5F400002000F098FC06461EB1314642
:1009A00041A00BF073FB022E03D0364800780028DC
:1009B00035DD34480078401C324908700120324946
:1009C000086000203149C1F8B401C82001F093FD4E
:1009D00001202D49091F08604FF4FA7001F08BFDCA
:1009E0007F20FFF7A7FE0020244908700120284936
:1009F000086000202749086001201A490870642017
:100A00002C490880174801782BA00BF03FFB01A868
:100A1000FFF7D0FE10B1BDE8FE83DBE356E0F1E066
:100A2000004800401400002019000020000C014084
:100A300055415254335F4352313A30582558255866
:100A40000D0A0000E4480020303A0000044900206C
:100A500046696C654E616D653A25730D0A000000AC
:100A6000640600201A00002049535020535445507A
:100A7000202564204552524F520D0A001C000020D0
:100A80001B0000201D000020B8812142008021426F
:100A9000A0012142888122422400002088030020F6
:100AA00030000020008022424B65792069643A259D
:100AB000640D0A002E00002075634953505F537483
:100AC00065702D303A25640D0A0000004FF6FF7066
:100AD00000909DF80400C0EBC0001C2202EB400017
:100AE000C1B21F23FBA2002001F0CDFBFDA00BF043
:100AF000CDFA00BF322001F0DAFC002000F0E5FB67
:100B000006461EB13146FBA00BF0C0FA012E19D1EA
:100B1000781CC7B29DF8040097FBF0F100FB117040
:100B2000C7B24FF6FF70009007F13000C2B29DF8D7
:100B30000400C0EBC0001C2303EB40011F234D2029
:100B400001F059FB022ED5D1C7EB0710EE4A02EB9C
:100B50004001EEA00BF09AFA40F253707843EA4A53
:100B600002EB00110122EE48006808F0B1FA09E03A
:100B7000E4E2B2E265E285E126E1F2E0C5E093E07D
:100B800077E040E08046B8F1000F0ED1C7EB0710C8
:100B9000DD4A02EB4001E3A00BF078FAE048006880
:100BA000C168E7A00BF072FA07E0D749E9A00BF0A3
:100BB0006DFAFFF7A2FEBDE8FE83D9480068C06861
:100BC000C821B0FBF1F0401CEE490880D448006811
:100BD000C068C821B0FBF1F201FB1200EA490870BD
:100BE0000878C11700EB91718910A0EB8101C1F168
:100BF0000401E64A1170E4480278E2480188E4A062
:100C00000BF044FAEAE2EA480078012801D1FFF744
:100C100074FEE84801880088401EE64A1080E9B169
:100C2000E5480078012823D10020E3490870E34813
:100C30000078792803D0E14800781F2818D10120D6
:100C4000DB4908700020DE4908700220DD49087089
:100C500008460178DCA00BF019FA09E0D8480078C2
:100C6000032802DDFFF749FE02E00020D5490870A5
:100C7000B4E2CF480078012801D0FFF73EFE002003
:100C8000CF4908704320FFF755FDBC20FFF752FD08
:100C90006420C84908800320CA49087008460178C2
:100CA000C9A00BF0F3F999E2C1480078012801D0FE
:100CB000FFF723FEBF4801880088401EBD4A108010
:100CC00001B3BD48007801281ED10020BA49087040
:100CD000BA480078792812D1FF20FFF72BFD0020B9
:100CE000FFF728FD0420B74908704FF4FA60B149B6
:100CF0000880B4480178B4A00BF0C8F904E0FFF70D
:100D0000FCFD01E0FFF7F9FD68E2A9480078012841
:100D100001D0FFF7F2FDA74801880088401EA54AD0
:100D20001080D9B1A4480078012819D10020A24927
:100D30000870A2480078792808D10520A1490870D8
:100D400008460178A0A00BF0A1F909E09B480178C2
:100D5000A1A00BF09BF9FFF7D0FD01E0FFF7CDFD5F
:100D60003CE2A54BC822A54801686D48006808F020
:100D70006FFA8046B8F1000F02D0FFF7BEFD11E018
:100D80009D48008848441FFA80F9002406E09B48EB
:100D90000068005D9A490855601C84B29648006856
:100DA0008442F4D33120FFF7C5FCCE20FFF7C2FC0C
:100DB000642080490880062082490870084601782E
:100DC00081A00BF063F909E279480078012801D08D
:100DD000FFF793FD774801880088401E754A108010
:100DE00079B37548007801284BD10020724908700A
:100DF0007248007879283FD18248006882490968A2
:100E00004518E8B28DF80B00012406E02D0AC4F164
:100E1000030102AA5554601C84B2042CF6DB0421A1
:100E200002A8FFF796FC78480068C821B0FBF1F0F3
:100E3000401C54490988884204D20720614908703F
:100E400010E01CE070480068C821B0FBF1F0401CC5
:100E50004C490988884203D108205A49087001E0AA
:100E6000FFF74BFD4FF496705249088055480178C2
:100E700055A00BF00BF904E0FFF73FFD01E0FFF791
:100E80003CFDABE14A480078012801D0FFF735FD71
:100E9000484801880088401E464A1080B9B146483B
:100EA0000078012814D10020434908704348007895
:100EB00079280ED154480068C821B0FBF1F0401CDD
:100EC00030490988884203D2C8214D489EE0B5E0E8
:100ED000B6E0B0E043686F73652062696E3A203017
:100EE0000000000043686F73652062696E3A20302D
:100EF0000D0A000063686F736520204B65792069D7
:100F0000643A25640D0A00006406002046696C6599
:100F1000204E616D652069733A25730D0A0000004B
:100F20008803002046696C65204E616D65206973F9
:100F30003A257320202020204F4B0D0A000000008E
:100F400046696C652053697A652069733A256C643B
:100F50000D0A000046696C65204E616D652069735D
:100F60003A2573202020202020202020202020200F
:100F7000202020202020202020204572726F720D1A
:100F80000A000000280000202A0000202B0000207A
:100F90005061636B65743A256420202E20456E6491
:100FA000506163427974653A256420200D0A00007F
:100FB0001B0000202E00002019000020140000203B
:100FC0001D0000201A00002075634953505F5374C0
:100FD00065703A25640D0A005468697320697320AE
:100FE000756172743320726563206572726F722E40
:100FF00025780D0A000000009003002098030020CF
:101000009C0500202000002024000020FFF7B7FBF3
:1010100074480068C8307349086004207249087039
:101020004CF25030714908806F480178AFF2680087
:101030000BF02CF804E0FFF760FC01E0FFF75DFC2B
:10104000CCE068480068C821B0FBF1F0401C68495A
:101050000988884201D0FFF750FC664800780128D3
:1010600001D0FFF74AFC614801880088401E5F4AB2
:10107000108071B36048007801282DD100205E49AE
:1010800008705E480078792820D156480068C82149
:10109000B0FBF1F0401C5649098888421CD15848E1
:1010A0000078584A12781044C1B25748FFF767FBDE
:1010B00009204D49087044F620604C4908804A4890
:1010C0000178AFF2FC000AF0E1FF05E0FFF715FC44
:1010D00002E0FFE7FFF711FC80E0464800780128B6
:1010E00001D0FFF70AFC414801880088401E3F4AB2
:1010F000108001B34048007801281ED100203E49ED
:1011000008703E480078792812D12120FFF712FBA1
:10111000DE20FFF70FFB0A203349087064203349B3
:10112000088031480178AFF260100AF0AFFF04E0A8
:10113000FFF7E3FB01E0FFF7E0FB4FE02D4800780D
:10114000012801D0FFF7D9FB284801880088401EFC
:10115000264A1080B9B328480078012839D10020E8
:10116000254908702548007879282DD12748056839
:10117000E8B28DF80B00012406E02D0AC4F103014A
:1011800002AA5554601C84B2042CF6DB042102A888
:10119000FFF7DFFA002014490870164908701C494F
:1011A00008701C49086001201B49C1F8B4011B49A3
:1011B000086000201A4908600A4908601948006858
:1011C00008F0A9FA05E002E0FFF797FB01E0FFF75E
:1011D00094FB03E000200449087000BF00BF00BF7B
:1011E000E9E40000240000201A0000202E00002066
:1011F000280000201B0000201900002014000020FF
:101200002A0000202B0000209C0500202000002048
:101210001D000020B881214200802142A00121420E
:10122000888122428803002008B50121242001F092
:1012300075FD4FF48070ADF8000010208DF80300AC
:1012400003208DF802006946094801F0ABFA4FF41B
:101250008071074801F053FB0420ADF80000694697
:10126000044801F09FFA0421024801F048FB08BD40
:10127000000801400014014008B50121142001F0CC
:101280004DFD0121374801F05EFB4FF40040ADF801
:10129000000048208DF803006946334801F082FAC7
:1012A0002020ADF8000048208DF8030069462F4843
:1012B00001F078FA0120ADF8000028208DF8030035
:1012C0006946294801F06EFA08BD10B5044614B10C
:1012D0000120274908702648007868B32021234858
:1012E00001F0F3FA58B14FF400411F4801F0EDFA54
:1012F00028B101211C4801F0E8FA01281CD10A207C
:1013000001F0F9F800201A4908702021174801F06F
:10131000DCFA08B9012010BD4FF40041124801F079
:10132000D4FA08B90220F6E701210F4801F0CDFAFE
:10133000012815D10320EEE720210C4801F0C5FA61
:1013400001280DD1C103084801F0BFFA012807D1D7
:101350000121054801F0B9FA10B9012004490870CB
:101360000020D8E7000230000008014000100140D2
:101370003100002070B50546002405E0601CC4B2B1
:10138000C82C01DD002070BD02212F4802F0EBF8CF
:101390000028F3D029462C4802F092F8002405E0FA
:1013A000601CC4B2C82C01DD0020ECE701212648F6
:1013B00002F0D9F80028F3D0234802F083F8C0B235
:1013C000E1E708B5012141F2040001F0A7FCE020AB
:1013D000ADF8000018208DF8030003208DF80200FE
:1013E00069461A4801F0DEF9E021184801F087FA51
:1013F0000020174908804FF48270488000208880C0
:101400000220C8800120088140024881382088815C
:101410000020C881072008820B4801F07BFF0121D2
:10142000094802F01CF8FF20FFF7A4FF08BD10B523
:101430000446074884810146034801F06BFF0121FF
:10144000014802F00CF810BD0030014000080140D6
:10145000DC06002010B500240020E9490860902037
:10146000FFF788FF0020FFF785FF0020FFF782FFCE
:101470000020FFF77FFFFF20FFF77CFF44EA0024F6
:10148000FF20FFF777FF04430120DE49C1F8880100
:10149000204610BD08B50121042001F03FFC1C20AE
:1014A000ADF8000010208DF8030003208DF8020035
:1014B0006946D54801F076F91C21D34801F01FFA9E
:1014C000FFF77FFF0820FFF7B2FFFFF7C3FFCF4909
:1014D000088008BD10B500240020C9490860052017
:1014E000FFF748FFFF20FFF745FF04460120C549ED
:1014F000C1F88801204610BD10B504460020C0493F
:1015000008600120FFF736FF2046FFF733FF012078
:10151000BC49C1F8880110BD10B50020B849086069
:101520000620FFF727FF0120B649C1F8880110BD4A
:1015300010B50020B24908600420FFF71BFF01200E
:10154000B049C1F8880110BD2DE9F04106460D46AD
:1015500017460020AA4908600320FFF70BFFC5F3D8
:101560000740FFF707FFC5F30720FFF703FFE8B2C7
:10157000FFF700FF00240CE0FF20FFF7FBFE3055D3
:101580002819B0F5004F02D9305D401E3055601C5F
:1015900084B2BC42F0DB012099490860BDE8F081CB
:1015A0002DE9F04106460C46174600209449086094
:1015B0000320FFF7DFFEC4F30740FFF7DBFEC4F3B1
:1015C0000720FFF7D7FEE0B2FFF7D4FE00250BE0BF
:1015D000FF20FFF7CFFE70556019B0F5004F01D91D
:1015E000FF207055681C85B2BD42F1DB01208449A3
:1015F0000860BDE8F08110B500BFFFF76BFF00F099
:1016000001000028F9D110BD2DE9F04106460C4635
:101610001746FFF781FF0020794908600220FFF795
:10162000A9FEC4F30740FFF7A5FEC4F30720FFF7A8
:10163000A1FEE0B2FFF79EFE00250EE06019B0F5B6
:10164000004F03D8705DFFF795FE04E0715D491C03
:10165000C8B2FFF78FFE681C85B2BD42EEDB0120E9
:1016600067490860FFF7C7FFBDE8F0812DE9F04149
:1016700007460E461446F0B2C0F58075AC4200DC59
:10168000254612E02A4631463846FFF7BDFFAC42F8
:1016900000D10BE02F442E44601B84B2B4F5807F50
:1016A00002DD4FF4807500E02546EBE700BFBDE8A2
:1016B000F08110B504462403FFF72EFFFFF79BFFD0
:1016C00000204F4908602020FFF754FEC4F3074074
:1016D000FFF750FEC4F30720FFF74CFEE0B2FFF720
:1016E00049FE01204749C1F88801FFF784FF10BD7A
:1016F0002DE9F04781460F4616464FEA1738C7F3E3
:101700000B0ACAF58054A64200DC344644E04FEA96
:1017100008314FF480523E48FFF716FF002508E0DD
:101720000AEB05003A49085CFF2800D003E0681C7A
:1017300085B2A542F4DB00BFA54216DA4046FFF7AA
:10174000B8FF002507E019F8050005EB0A01304A4B
:101750005054681C85B2A542F5DB4FEA08314FF4BE
:1017600080522B48FFF782FF04E022463946484664
:10177000FFF77CFFA64200D10FE008F101084FF00F
:10178000000AA1442744301B86B2B6F5805F02DD13
:101790004FF4805400E03446B9E700BFBDE8F0875D
:1017A00010B5FFF7B9FEFFF726FF002014490860C7
:1017B000C720FFF7DFFD01201249C1F88801FFF7BC
:1017C0001AFF10BD10B500200D490860B920FFF7C1
:1017D000D1FD01200B49C1F88801032000F067FE0C
:1017E00010BD10B5002006490860AB20FFF7C2FD10
:1017F00001200449C1F88801032000F058FE10BD03
:1018000088012142000021420008014032000020EE
:10181000EE06002008B50121192001F07FFA42F2FE
:101820000D00ADF8000010208DF8030003208DF8A6
:1018300002006946FE4800F0B5FF4FF47071FC48A5
:1018400001F05DF808BD70B504460025082517E0D5
:1018500004F0800020B10421F54801F050F803E0C5
:101860000421F34801F04DF80821F14801F049F84E
:101870000821EF4801F043F86006040E681EC5B267
:10188000002DE5DC70BD70B504460025082517E085
:1018900004F0800020B10421E54801F030F803E0B5
:1018A0000421E34801F02DF80821E14801F029F86E
:1018B0000821DF4801F023F86006040E681EC5B257
:1018C000002DE5DC70BD10B504464FF40051D8483A
:1018D00001F017F82046FFF7D6FF10BD10B50446FB
:1018E0004FF40051D24801F00AF82046FFF7CBFF31
:1018F00010BD10B504464FF40051CD4800F0FFFF75
:101900002012FFF7C0FFE0B2FFF7BDFF10BD70B5BA
:1019100005460C461CB92846FFF7D5FF02E02846CD
:10192000FFF7DCFF70BD10B50121C14800F0E9FFF1
:10193000962000F0E0FD0121BD4800F0E0FF3220DC
:1019400000F0D9FD10BD2DE9F04104460D461646C4
:101950001F4600212A20FFF7DAFF0121C4F30720E8
:10196000FFF7D5FFA11CC8B20121FFF7D0FFA119D5
:10197000491CC1F307200121FFF7C9FFA119491C28
:10198000C8B20121FFF7C3FF00212B20FFF7BFFFE3
:101990000121C5F30720FFF7BAFFE91CC8B20121F6
:1019A000FFF7B5FFE919891CC1F307200121FFF7F3
:1019B000AEFFE919891CC8B20121FFF7A8FF002179
:1019C0002C20FFF7A4FFBDE8F0812DE9F04104468B
:1019D0000025002680231A4600210846FFF7B3FFA2
:1019E000C4F3072704F0FF0800212C20FFF78FFF26
:1019F0004FF400518E4800F082FF00BF8AE10026BC
:101A000084E13846FFF71FFF4046FFF71CFF3846CA
:101A1000FFF719FF4046FFF716FF3846FFF713FFA1
:101A20004046FFF710FF3846FFF70DFF4046FFF72F
:101A30000AFF3846FFF707FF4046FFF704FF384626
:101A4000FFF701FF4046FFF7FEFE3846FFF7FBFEBB
:101A50004046FFF7F8FE3846FFF7F5FE4046FFF731
:101A6000F2FE3846FFF7EFFE4046FFF7ECFE384641
:101A7000FFF7E9FE4046FFF7E6FE3846FFF7E3FED4
:101A80004046FFF7E0FE3846FFF7DDFE4046FFF731
:101A9000DAFE3846FFF7D7FE4046FFF7D4FE384659
:101AA000FFF7D1FE4046FFF7CEFE3846FFF7CBFEEC
:101AB0004046FFF7C8FE3846FFF7C5FE4046FFF731
:101AC000C2FE3846FFF7BFFE4046FFF7BCFE384671
:101AD000FFF7B9FE4046FFF7B6FE3846FFF7B3FE04
:101AE0004046FFF7B0FE3846FFF7ADFE4046FFF731
:101AF000AAFE3846FFF7A7FE4046FFF7A4FE384689
:101B0000FFF7A1FE4046FFF79EFE3846FFF79BFE1B
:101B10004046FFF798FE3846FFF795FE4046FFF730
:101B200092FE3846FFF78FFE4046FFF78CFE3846A0
:101B3000FFF789FE4046FFF786FE3846FFF783FE33
:101B40004046FFF780FE3846FFF77DFE4046FFF730
:101B50007AFE3846FFF777FE4046FFF774FE3846B8
:101B6000FFF771FE4046FFF76EFE3846FFF76BFE4B
:101B70004046FFF768FE3846FFF765FE4046FFF730
:101B800062FE3846FFF75FFE4046FFF75CFE3846D0
:101B9000FFF759FE4046FFF756FE3846FFF753FE63
:101BA0004046FFF750FE3846FFF74DFE4046FFF730
:101BB0004AFE3846FFF747FE4046FFF744FE3846E8
:101BC000FFF741FE4046FFF73EFE3846FFF73BFE7B
:101BD0004046FFF738FE3846FFF735FE4046FFF730
:101BE00032FE3846FFF72FFE4046FFF72CFE384600
:101BF000FFF729FE4046FFF726FE3846FFF723FE93
:101C00004046FFF720FE3846FFF71DFE4046FFF72F
:101C10001AFE3846FFF717FE4046FFF714FE384617
:101C2000FFF711FE4046FFF70EFE384602E00000C7
:101C300000100140FFF707FE4046FFF704FE38465C
:101C4000FFF701FE4046FFF7FEFD3846FFF7FBFDBC
:101C50004046FFF7F8FD3846FFF7F5FD4046FFF731
:101C6000F2FD3846FFF7EFFD4046FFF7ECFD384642
:101C7000FFF7E9FD4046FFF7E6FD3846FFF7E3FDD5
:101C80004046FFF7E0FD3846FFF7DDFD4046FFF731
:101C9000DAFD3846FFF7D7FD4046FFF7D4FD38465A
:101CA000FFF7D1FD4046FFF7CEFD3846FFF7CBFDED
:101CB0004046FFF7C8FD3846FFF7C5FD4046FFF731
:101CC000C2FD3846FFF7BFFD4046FFF7BCFD384672
:101CD000FFF7B9FD4046FFF7B6FD3846FFF7B3FD05
:101CE0004046FFF7B0FD3846FFF7ADFD4046FFF731
:101CF000AAFD3846FFF7A7FD4046FFF7A4FD38468A
:101D0000FFF7A1FD4046FFF79EFD761C022EFFF473
:101D100078AE6D1C802DFFF472AE4FF40051FE487A
:101D200000F0EDFDBDE8F08170B505460E461446A5
:101D30000121C4F30720FFF7EAFDE0B20121FFF71C
:101D4000E6FD70BD2DE9F0470746884614461D465E
:101D50000026C5F3072905F0FF0A23460122414664
:101D60003846FFF7F0FD00BF08E001214846FFF7C5
:101D7000CEFD01215046FFF7CAFD761CA642F4D3E2
:101D8000BDE8F0872DE9F0470746884615461C4612
:101D90000026C4F3072904F0FF0A01232A4641461E
:101DA0003846FFF7D0FD00BF08E001214846FFF7A5
:101DB000AEFD01215046FFF7AAFD761CAE42F4D3DA
:101DC000BDE8F0872DE9F04105460E4617461C4652
:101DD000DDF8188043463A4631462846FFF7D2FFE1
:101DE000311943463A462846FFF7CCFF4346224680
:101DF00031462846FFF7A6FFE919481E434622460A
:101E00003146FFF79FFFBDE8F0812DE9F84F80468E
:101E1000894614461D460A9E04FB05F0012101EB8C
:101E2000101AC6F3072BF0B200902B462246494603
:101E30004046FFF788FD00212C20FFF768FD4FF496
:101E40000051B54800F05BFD002760E05846FFF701
:101E5000FAFC0098FFF7F7FC5846FFF7F4FC0098EF
:101E6000FFF7F1FC5846FFF7EEFC0098FFF7EBFC9C
:101E70005846FFF7E8FC0098FFF7E5FC5846FFF7E7
:101E8000E2FC0098FFF7DFFC5846FFF7DCFC009807
:101E9000FFF7D9FC5846FFF7D6FC0098FFF7D3FCB4
:101EA0005846FFF7D0FC0098FFF7CDFC5846FFF7E7
:101EB000CAFC0098FFF7C7FC5846FFF7C4FC00981F
:101EC000FFF7C1FC5846FFF7BEFC0098FFF7BBFCCC
:101ED0005846FFF7B8FC0098FFF7B5FC5846FFF7E7
:101EE000B2FC0098FFF7AFFC5846FFF7ACFC009837
:101EF000FFF7A9FC5846FFF7A6FC0098FFF7A3FCE4
:101F00005846FFF7A0FC0098FFF79DFC7F1C574543
:101F10009CD3BDE8F88F10B5FFF77CFCFFF703FDFD
:101F200000211120FFF7F3FC012000F0E4FA00216A
:101F3000B120FFF7ECFC01210846FFF7E8FC012186
:101F40002C20FFF7E4FC01212D20FFF7E0FC00210D
:101F5000B220FFF7DCFC01210846FFF7D8FC012185
:101F60002C20FFF7D4FC01212D20FFF7D0FC00210D
:101F7000B320FFF7CCFC01210846FFF7C8FC012184
:101F80002C20FFF7C4FC01212D20FFF7C0FC01210C
:101F90000846FFF7BCFC01212C20FFF7B8FC01210B
:101FA0002D20FFF7B4FC0021B420FFF7B0FC012185
:101FB0000720FFF7ACFC0021C020FFF7A8FC01219F
:101FC000A220FFF7A4FC01210220FFF7A0FC0121C1
:101FD0008420FFF79CFC0021C120FFF798FC012121
:101FE000C520FFF794FC0021C220FFF790FC0121DF
:101FF0000A20FFF78CFC01210020FFF788FC00215C
:10200000C320FFF784FC01218A20FFF780FC012117
:102010002A20FFF77CFC0021C420FFF778FC012177
:102020008A20FFF774FC0121EE20FFF770FC0021ED
:10203000C520FFF76CFC01210E20FFF768FC002192
:102040003620FFF764FC0121C820FFF760FC002167
:10205000E020FFF75CFC01210F20FFF758FC012175
:102060001A20FFF754FC01210F20FFF750FC01213B
:102070001820FFF74CFC01212F20FFF748FC01211D
:102080002820FFF744FC01212020FFF740FC01211C
:102090002220FFF73CFC01211F20FFF738FC012123
:1020A0001B20FFF734FC01212320FFF730FC012126
:1020B0003720FFF72CFC01210020FFF728FC01212D
:1020C0000720FFF724FC01210220FFF720FC01215B
:1020D0001020FFF71CFC0021E120FFF718FC012174
:1020E0000F20FFF714FC01211B20FFF710FC01213A
:1020F0000F20FFF70CFC01211720FFF708FC01213E
:102100003320FFF704FC01212C20FFF700FC012104
:102110002920FFF7FCFB01E00010014001212E20E7
:10212000FFF7F5FB01213020FFF7F1FB0121302003
:10213000FFF7EDFB01213920FFF7E9FB01213F20EB
:10214000FFF7E5FB01210020FFF7E1FB012107205C
:10215000FFF7DDFB01210320FFF7D9FB0121102050
:10216000FFF7D5FB00212A20FFF7D1FB012100203A
:10217000FFF7CDFB01210020FFF7C9FB0121002063
:10218000FFF7C5FB01217F20FFF7C1FB00212B20BA
:10219000FFF7BDFB01210020FFF7B9FB0121002063
:1021A000FFF7B5FB01210020FFF7B1FB01219F20C4
:1021B000FFF7ADFB0021F020FFF7A9FB0121084646
:1021C000FFF7A5FB0021F620FFF7A1FB012100206E
:1021D000FFF79DFB00213A20FFF799FB0121052025
:1021E000FFF795FB00212920FFF791FB4DF6FF70CB
:1021F000FFF7EBFB10BD2DE9F05F82468B461646DC
:102200001C460A9F0E23072259465046FFF79BFBA8
:102210004FF40051944800F072FB00252AE0A6F12B
:102220002000C0EBC000914901EB400010F8059080
:102230004FF0000819E009F0800038B1C4F307201E
:10224000FFF701FBE0B2FFF7FEFA06E0C7F3072055
:10225000FFF7F9FAF8B2FFF7F6FA4FEA49604FEAEA
:10226000106908F1010000F0FF08B8F1070FE2DB88
:10227000681CC5B20E2DD2DB4FF400517A4800F035
:102280003EFBBDE8F09F2DE9F84306460F46144695
:102290009846DDF82090002510E0CDF800902278D7
:1022A000C5EBC501881943463946FFF7A4FF641CF6
:1022B000681CC5B2122D01DBBDE8F8832078002828
:1022C000EBD100BFF8E72DE9F05F82468B469146DF
:1022D0001C460A9E0E231A4659465046FFF733FB0A
:1022E0004FF40051604800F00AFB002549E0C9EBBB
:1022F000C9005F4901EB800010F80580002717E056
:1023000008F0800038B1C4F30720FFF79CFAE0B270
:10231000FFF799FA06E0C6F30720FFF794FAF0B248
:10232000FFF791FA4FEA48604FEA1068781CC7B28D
:10233000082FE5DB681CC5B2C9EBC9004C4901EBAD
:10234000800010F80580002717E008F0800038B101
:10235000C4F30720FFF777FAE0B2FFF774FA06E05C
:10236000C6F30720FFF76FFAF0B2FFF76CFA4FEAF7
:1023700048604FEA1068781CC7B2062FE5DB681C7E
:10238000C5B21C2DB3DB4FF40051374800F0B7FA4B
:10239000BDE8F09F2DE9F843064688461446994665
:1023A000089F002541E000203249087022E0217892
:1023B00030480078304A12F81000814215D1617817
:1023C0002C480078012202EB40002B4A105C81422D
:1023D0000BD1C5EBC50106EB41004B4625490097E3
:1023E0000A784146FFF76FFF08E022480078401C5A
:1023F000204908701F4800788028D8DB00BF1D489E
:102400000078802809DBC5EBC50106EB41000E23EF
:102410001A4641460097FFF7F8FC641C641C681CD0
:10242000C5B2092D01DBBDE8F88320780028BAD1B8
:1024300000BFF8E72DE9F041054628235022052189
:102440001820FFF780FA002409E015F8147005EB56
:102450004400467847EA0620FFF74BFA641CB4F5BF
:10246000486FF2DBBDE8F08100100140B7CB0008F7
:1024700057C700083400002006C7000810B56FF0E9
:10248000040000F002FF2E4800682E49B0FBF1F076
:102490002D4908700846007800EB4001C1EBC010E0
:1024A0004FF6FF7101EAC0002849088010BD0146BF
:1024B000254A12784A434FF0E0235A6100229A617C
:1024C0001A46126942F001021A6100BF4FF0E02281
:1024D000106900F001021AB100F48032002AF5D030
:1024E0004FF0E022126922F001024FF0E0231A615E
:1024F00000229A6170470146144A12884A434FF0FD
:10250000E0235A6100229A611A46126942F00102E0
:102510001A6100BF4FF0E022106900F001021AB109
:1025200000F48032002AF5D04FF0E022126922F048
:1025300001024FF0E0231A6100229A617047000007
:102540000000002000127A00360000203800002031
:1025500010B54FF4A06000F049FE10BD014600BF69
:10256000704700BF4B4A128802F04002002AF9D09F
:10257000C2B2484B1B1D1A80704710B586B0044686
:10258000012144F2040000F0C9FB424800F02AFC9B
:102590004FF40070ADF8140003208DF816001820D9
:1025A0008DF8170005A93C4800F0FCF84FF4806056
:1025B000ADF8140004208DF8170005A9364800F086
:1025C000F1F825208DF8000003208DF801008DF82A
:1025D000020001208DF80300684600F00CFE019413
:1025E0000020ADF80800ADF80A00ADF80C00ADF819
:1025F00010000C20ADF80E0001A9264800F035FCB3
:10260000012240F22551234800F0C7FC0121214856
:1026100000F0B7FC06B010BD10B540F225511D48C2
:1026200000F0A0FD10B31B4800F01CFDC4B21B4815
:10263000008800F40040C8B91848008800F48040C1
:1026400060B10A2C03D000201449088020E0134810
:10265000008840F400401149088019E00D2C06D193
:102660000E48008840F480400C49088010E00B4878
:102670000088C0F30D000A490C5408480088401C2B
:102680000649088008460088C72801DD0020088028
:1026900010BD00000038014000080140400000204B
:1026A000EE1600200948804709480047FEE7FEE78C
:1026B000FEE7FEE7FEE7FEE7FEE7FEE7FEE7FEE7F2
:1026C00004480549054A064B7047000023050008E9
:1026D0003101000888490020884F0020884B0020E5
:1026E000884B002010B50446CC48844208D1012113
:1026F000042000F02DFB0021042000F029FB46E01F
:10270000C748844208D10121082000F021FB0021A4
:10271000082000F01DFB3AE0C248844208D10121A4
:10272000102000F015FB0021102000F011FB2EE01E
:10273000BD48844208D10121202000F009FB00217E
:10274000202000F005FB22E0B848844208D1012196
:10275000402000F0FDFA0021402000F0F9FA16E0D8
:10276000B348844208D10121802000F0F1FA002111
:10277000802000F0EDFA0AE0AE48844207D1012142
:10278000801500F0E5FA0021A01500F0E1FA10BD77
:1027900010B50121084600F0DBFA0021012000F00D
:1027A000D7FA10BD2DE9F041024600250026002091
:1027B00000230024002791F803C00CF00F0591F8C6
:1027C00003C00CF0100CBCF1000F03D091F802C054
:1027D0004CEA050591F800C0BCF1000F31D0146837
:1027E00000202BE04FF0010C0CFA00F3B1F800C010
:1027F0000CEA03069E4220D183004FF00F0C0CFA26
:1028000003F7BC4305FA03FC4CEA040491F803C047
:10281000BCF1280F06D14FF0010C0CFA00FCC2F8F5
:1028200014C00AE091F803C0BCF1480F05D14FF085
:10283000010C0CFA00FCC2F810C0401C0828D1D3CF
:102840001460B1F800C0BCF1FF0F34DD5468002003
:102850002EE000F1080C4FF0010808FA0CF3B1F873
:1028600000C00CEA03069E4221D183004FF00F0CFA
:102870000CFA03F7BC4305FA03FC4CEA040491F894
:1028800003C0BCF1280F05D100F1080C08FA0CF8C0
:10289000C2F8148091F803C0BCF1480F07D100F1D1
:1028A000080C4FF0010808FA0CF8C2F81080401C20
:1028B0000828CED35460BDE8F0814FF6FF71018047
:1028C000022181700421C170704702460020936884
:1028D0000B400BB1012000E00020704701468868E2
:1028E00080B2704702460020D3680B400BB1012034
:1028F00000E0002070470146C86880B2704701615F
:102900007047416170470AB1016100E04161704761
:10291000C16070474FF480320A43826181618261F5
:1029200082698269704702460020434B18684FF65F
:102930008073184040EA021008433F4B186070470C
:102940003E49C8617047F0B50A46002300240021C3
:10295000002500F00046B6F1004F02D1364EF16975
:1029600001E0354E7168C0F3034583B200F44016B0
:10297000B6F5401F08D121F070612F4E766826F021
:1029800070662D4F7E6012E000F48016B6F5801F51
:1029900006D1032606FA05F4A14341F0706106E072
:1029A000460D360103FA06F6B14341F0706122B1DB
:1029B000460D360103FA06F6314300F00046B6F143
:1029C000004F02D11C4EF16101E01B4E7160F0BD61
:1029D00030B500228B071C0F0F2303FA04F2164BAD
:1029E00008338C1053F824309343134C08348D1063
:1029F00044F8253023468C1053F824308C07240FDC
:102A000000FA04F423430C4C08348D1044F82530AC
:102A100030BD0A49DC310860704700000008014001
:102A2000000C01400010014000140140001801405A
:102A3000001C014000200140000001400000204235
:102A4000DF48006840F00100DD4908600846406842
:102A5000DC490840DA49486008460068DA4908401D
:102A6000D74908600846006820F4802008600846BE
:102A7000406820F4FE0048604FF41F0088607047F3
:102A8000CF49096821F48031CD4A116011460968A7
:102A900021F480211160B0F5803F03D0B0F5802F84
:102AA0000ED106E0C649096841F48031C44A11607C
:102AB00007E0C349096841F4A021C14A116000E060
:102AC00000BF00BF704710B5014600220023002060
:102AD0004A11012A02D1BA4C236806E0022A02D127
:102AE000B74C236A01E0B64C636A01F01F0201246F
:102AF00094401C400CB1012000E0002010BD38B50E
:102B0000002000900024002500BF3120FFF7DBFFEC
:102B100005460098401C00900098B0F5A06F01D0C9
:102B2000002DF2D03120FFF7CEFF08B1012400E0E4
:102B30000024204638BD01460020A14A106820F03C
:102B4000F80040EAC10010607047A0490860704773
:102B5000024600209A4B586820F47C1042EA010398
:102B60001843974B5860704798490866704701466C
:102B70000020934A506820F00300084350607047DB
:102B80008F48406800F00C007047014600208C4AD6
:102B9000506820F0F0000843506070470146002064
:102BA000874A506820F4E06008435060704701464F
:102BB0000020834A506820F4605040EAC100506011
:102BC000704729B17E4A527A02437D4B5A7204E023
:102BD0007B4A527A82437A4B5A7270477B49D8318A
:102BE0000860704701460020754A506820F4404054
:102BF0000843506070470021714A20321170704ABA
:102C000082F82010012802D004280AD104E0012112
:102C10006B4A2032117005E00521694A203211709B
:102C200000E000BF00BF7047694908607047644911
:102C3000096A0143624A1162704765494439086074
:102C4000704730B500210022002400235C4D6D68E0
:102C500005F00C0121B1042905D0082923D105E094
:102C60005C4D056022E05B4D05601FE0544D6D68D2
:102C700005F47012524D6D6805F48034022505EBA1
:102C800092421CB9544D554305600BE04C4D6D68A4
:102C900005F400351DB1504D5543056002E04D4D22
:102CA0005543056002E04B4D056000BF00BF444D39
:102CB0006D6805F0F0010909484D6B5C0568DD4061
:102CC00045603F4D6D6805F4E061090A434D6B5C5A
:102CD0004568DD4085603A4D6D6805F46051C90A6C
:102CE0003E4D6B5C4568DD40C560354D6D6805F453
:102CF0004041890B3A4D6B5CC568B5FBF3F5056146
:102D000030BD29B12E4A526902432D4B5A6104E06D
:102D10002B4A526982432A4B5A61704729B1284A8B
:102D200092690243264B9A6104E0254A92698243E4
:102D3000234B9A61704729B1214AD2690243204B43
:102D4000DA6104E01E4AD26982431D4BDA617047A2
:102D500029B11B4AD2680243194BDA6004E0184AD1
:102D6000D2688243164BDA60704729B1144A12695F
:102D70000243134B1A6104E0114A12698243104B5B
:102D80001A61704712494039086070470F49C8649A
:102D900070470B49C87170470948406A40F080701D
:102DA00007494862704701460020054A92680A4078
:102DB0000AB1012000E00020704701498872704785
:102DC000001002400000FFF8FFFFF6FE0000424244
:102DD0008004424200127A0000093D0042000020B7
:102DE0005200002010B50446FB48844209D101215D
:102DF0008803FFF7ADFF00214FF48040FFF7A8FFE5
:102E000032E0F648844209D101214804FFF7ADFFC2
:102E100000214FF40030FFF7A8FF25E0F04884427E
:102E200009D101218804FFF7A0FF00214FF4802081
:102E3000FFF79BFF18E0EB48844209D10121C80449
:102E4000FFF793FF00214FF40020FFF78EFF0BE008
:102E5000E548844208D101210805FFF786FF0021DB
:102E60004FF48010FFF781FF10BD2DE9F04786B0C9
:102E700005460E460024A24600BFA1460027B089A1
:102E800000B100BF2F462C8A4CF6FF700440F0883A
:102E900004432C82AC894EF6F3100440B08831898B
:102EA0000843718908430443AC81AC8A4FF6FF4064
:102EB0000440B0890443AC8201A8FFF7C2FEC648B3
:102EC000874202D1DDF810A001E0DDF80CA0A8894E
:102ED00000F4004040B10AEBCA0000EB0A10316870
:102EE0004900B0FBF1F807E00AEBCA0000EB0A105A
:102EF00031688900B0FBF1F86420B8FBF0F0040100
:102F00002009642101FB1089A88900F4004040B128
:102F1000322000EBC900B0FBF1F000F007000443E1
:102F200008E0322000EB09106421B0FBF1F000F062
:102F30000F0004432C8106B0BDE8F0874FF4165112
:102F4000016000218180C18001810C21418100212B
:102F50008181704710B502460020108A4FF2FF03AE
:102F600018400B884C8823438C882343CC88234308
:102F70001843108210BD0021018041808180C180F2
:102F8000704721B1828942F40052828104E0828933
:102F90004DF6FF731A4082817047F0B50346002456
:102FA00000260025002040F66A17B94200D100BF74
:102FB0001846C1F3421401F01F06012707FA06F56F
:102FC000012C01D10C3004E0022C01D1103000E0C2
:102FD00014301AB107682F43076002E00768AF4357
:102FE0000760F0BD1AB1838A0B43838202E0838AB3
:102FF0008B4383827047028A4FF6F0731A40028235
:10300000028A0A430282704782894FF2FF731A4094
:10301000828182890A438281704721B1828942F08C
:103020000202828104E082894FF6FD731A40828198
:103030007047028A4FF6DF731A400282028A0A43FF
:103040000282704721B1028A42F48042028204E087
:10305000028A4BF6FF731A4002827047C1F30802DE
:103060008280704701468888C0F3080070478189D4
:1030700041F0010181817047028BD2B20283028B41
:1030800042EA012202837047028B02F47F420283EC
:10309000028B0A430283704721B1828A42F02002E8
:1030A000828204E0828A4FF6DF731A408282704780
:1030B00021B1828A42F01002828204E0828A4FF6B5
:1030C000EF731A408282704721B1828A42F008026F
:1030D000828204E0828A4FF6F7731A408282704738
:1030E00021B1828942F40042828103E08289C2F3E5
:1030F0000E028281704721B1828A42F4006282828C
:1031000004E0828A4FF2FF731A4082827047828AFB
:103110004FF6FB731A408282828A0A43828270478A
:1031200021B1828A42F00202828204E0828A4FF652
:10313000FD731A408282704702460020B1F5007F7D
:1031400000D100BF13880B400BB1012000E000202C
:10315000704701F40072B2F5007F00D100BFCA438E
:103160000280704770B5024600240023002500202D
:1031700040F66A16B14200D100BFC1F3421501F01A
:103180001F03012606FA03F3012D02D1968933406D
:1031900006E0022D02D1168A334001E0968A3340C0
:1031A0000C12012606FA04F41688344013B10CB14F
:1031B000012000E0002070BD10B50022002340F681
:1031C0006A14A14200D100BF0A1201249440A3B2A4
:1031D000DC43048010BD0000003801400044004082
:1031E00000480040004C004000500040314901437D
:1031F000314A1160704770B5002100230F22C47856
:1032000004B32D4C246804F4E064C4F5E064210A9E
:10321000C1F10403CA40447804FA03F184781440ED
:1032200021430901254C0678A155047804F01F05B7
:103230000124AC4005786D11AD0005F1E025C5F81D
:10324000004109E0047804F01F050124AC401C4D46
:103250000678761145F8264070BD1A4A0A400243A6
:10326000154B1B1F1A60704739B1134A121D1268A3
:103270000243114B1B1D1A6006E00F4A121D126813
:1032800082430D4B1B1D1A607047042808D14FF074
:10329000E021096941F004014FF0E022116107E0EB
:1032A0004FF0E021096921F004014FF0E0221161A3
:1032B000704700000000FA050CED00E000E400E0BB
:1032C00080E100E080FFFF1F10B50446BE48844245
:1032D00008D101218014FFF73BFD0021A014FFF766
:1032E00037FD16E0B948844208D101210014FFF7E8
:1032F0003CFD00212014FFF738FD0AE0B448844269
:1033000007D10121C013FFF730FD0021E013FFF7C3
:103310002CFD10BD10B50022028802F441520B882A
:103320004C8823438C882343CC8823430C89234334
:103330004C8923438C892343CC8923431A4302803D
:10334000838B4FF2FF74234083830B8A038210BD6B
:103350002DE9F04F85B005460C464FF000090227D5
:103360004FF000084FF0010B0026B246A88B4FF239
:1033700040010840A88302202884B5F81C90A0686A
:10338000022801D100BF38E0A08810B94FF0010B2E
:1033900001E04FF0020B8D48854200D100E000BFF4
:1033A0006846FFF74EFCDDF800A0E088B0F5007F2E
:1033B0000AD14FEA1A2000EB80004000A168B0FB60
:1033C000F1F0401D86B20BE04FEA4B10BAFBF0F073
:1033D00000EB80004000A168B0FBF1F0401D86B218
:1033E0000A20B6FBF0F606F00108A6EB0800C0F3D1
:1033F0004F074FF6FF7000EA0828022F01DBFF2F6E
:1034000002DD02274FF00008E08840EA0800384358
:103410002884A088A189084361880843218808433B
:1034200040F4006040EA0909A5F81C9005B0BDE829
:10343000F08F0021018041808180C1800181418124
:103440008181C18107210182704700210180418073
:103450008180C1800221816000218181704721B17A
:10346000028842F04002028004E002884FF6BF73F7
:103470001A400280704721B1828B42F480628283BD
:1034800004E0828B4FF6FF331A408283704730B5D9
:10349000002400230C110125A540ABB21AB1858888
:1034A0001D43858002E085889D43858030BD1AB12B
:1034B00083880B43838002E083888B43838070473B
:1034C000818170470146888970474FF6FF629142BB
:1034D00004D0028842F48072028004E002884FF631
:1034E000FF631A400280704721B1828842F00402D3
:1034F000828004E082884FF6FB731A408280704716
:1035000002884FF2FF731A40028002880A43028049
:103510007047018841F480510180704721B10288D1
:1035200042F40052028004E002884DF6FF731A4014
:103530000280704702460020012901D0108B00E074
:10354000908A70470146088A7047B1F5804F04D1D0
:10355000028842F48042028004E002884BF6FF7346
:103560001A40028070470246002013890B400BB1BD
:10357000012000E000207047CA4302817047F0B587
:103580000246002000240023002501F00F07012639
:10359000BE40B4B20B1101269E40B3B2968806EA33
:1035A00003051689264016B10DB1012000E0002068
:1035B000F0BD10B5002201F00F040123A3409AB220
:1035C000D343038110BD00000030014000380040AB
:1035D000003C0040002044490860091D0860091DA6
:1035E0000860091D086041483F4914310860704770
:1035F00000213D498279002A3AD00A4612680368C0
:103600009A430B461A600A1D126803689A430B1D01
:103610001A60027911440A6803681A430A60324A40
:103620000832126803689A432F4B08331A601A1D38
:10363000126803689A432C4B0C331A604279102AA3
:103640000ED11A1F126803681A43274B08331A60F9
:103650001A1D126803681A43234B0C331A600DE0DD
:103660002149427911440A6803681A430A6005E057
:10367000027911440A6803689A430A60704700217E
:10368000016001710C21417100218171704716495F
:10369000103109680143144A103211607047014625
:1036A0000020114A143212680A400AB1012000E0D9
:1036B000002070470C491431086070470146002013
:1036C0000022094B1B6803EA0102074B14331B68F5
:1036D0000B4013B10AB1012000E0002070470249FD
:1036E000143108607047000000040140FFFF0F0024
:1036F00010B50446FE48844208D10121C014FFF7EA
:1037000027FB0021E014FFF723FBC4E0B4F1804F56
:1037100008D101210846FFF728FB00210120FFF70F
:1037200024FBB8E0F348844208D101210220FFF7CE
:103730001CFB00210220FFF718FBACE0EE4884429E
:1037400008D101210420FFF710FB00210420FFF71E
:103750000CFBA0E0E948844208D101210820FFF7D2
:1037600004FB00210820FFF700FB94E0E4488442BA
:1037700008D101211020FFF7F8FA00211020FFF7EF
:10378000F4FA88E0DF48844208D101212020FFF7C5
:10379000ECFA00212020FFF7E8FA7CE0DA488442C6
:1037A00008D101214014FFF7D3FA00216014FFF77C
:1037B000CFFA70E0D548844209D10121C804FFF74F
:1037C000C7FA00214FF40020FFF7C2FA63E0D048A7
:1037D000844209D101210805FFF7BAFA00214FF40C
:1037E0008010FFF7B5FA56E0CA48844209D101219A
:1037F0004805FFF7ADFA00214FF40010FFF7A8FAD3
:1038000049E0C548844208D101214020FFF7ADFAC4
:1038100000214020FFF7A9FA3DE0C048844208D1CA
:1038200001218020FFF7A1FA00218020FFF79DFAF7
:1038300031E0BB48844208D101218015FFF795FA99
:103840000021A015FFF791FA25E0B648844209D17E
:1038500001210804FFF77CFA00214FF48030FFF7C4
:1038600077FA18E0B048844209D101214804FFF7F3
:103870006FFA00214FF40030FFF76AFA0BE0AB4813
:10388000844208D101218804FFF762FA00214FF435
:103890008020FFF75DFA10BD00220288944B984209
:1038A0000ED0994B98420BD0B0F1804F08D0914B7D
:1038B000984205D0904B984202D0904B984204D148
:1038C0004FF68F731A404B881A438D4B984207D09E
:1038D0008C4B984204D04FF6FF431A40CB881A43D2
:1038E00002808B8883850B880385814B98420BD09F
:1038F000854B984208D08B4B984205D08A4B984212
:1039000002D08A4B984201D10B7A0386012383822D
:10391000704770B5002400220023058C4FF6FE7618
:1039200035400584028C8388048B4FF68F752C40BC
:10393000B51E2C400D882C43751E2A400D892A4344
:103940004D882A436A4DA8420BD06F4DA84208D03B
:10395000744DA84205D0744DA84202D0734DA842C0
:1039600013D14FF6F7752A404D892A434FF6FB7560
:103970002A408D882A434FF6FF652B404FF6FF55AE
:103980002B408D892B43CD892B4383800483CD88A5
:103990008586028470BD70B5002400220023058C4A
:1039A0004FF6EF7635400584028C8388048B48F609
:1039B000FF752C404FF6FF452C400D884FF6FF76E3
:1039C00006EA05252C434FF6DF752A400D8906EAE5
:1039D00005152A434D8806EA05152A43444DA84299
:1039E00002D0494DA8421DD14FF67F752A404D891E
:1039F0004FF6FF7606EA05152A434FF6BF752A40B3
:103A00008D8806EA05152A434FF6FF352B404FF205
:103A1000FF752B408D8906EA85052B43CD8906EA83
:103A200085052B4383800483CD880587028470BD80
:103A300070B5002400220023058C4FF6FF66354048
:103A40000584028C8388848B4FF68F752C404FF64B
:103A5000FC752C400D882C434FF6FF552A400D89EC
:103A60004FF6FF7606EA05252A434D8806EA052526
:103A70002A431F4DA84202D0234DA8421DD14FF228
:103A8000FF752A404D894FF6FF7606EA05252A4341
:103A90004FF6FF352A408D8806EA05252A434EF663
:103AA000FF752B404DF6FF752B408D8906EA0515F5
:103AB0002B43CD8906EA05152B4383808483CD886B
:103AC0008587028470BD70B5002200230024058C18
:103AD0004EF6FF7635400584038C8488828B48F649
:103AE000FF752A404FF6FF452A400D8820E0000070
:103AF000002C01400004004000080040000C004081
:103B0000001000400014004000340140004C01400F
:103B1000005001400054014000180040001C0040CB
:103B200000200040004001400044014000480140A6
:103B30004FF6FF7606EA05252A434DF6FF752B4022
:103B40000D8906EA05352B434D8806EA05352B43DA
:103B5000FA4DA84202D0FA4DA84208D14BF6FF75A3
:103B60002C408D894FF6FF7606EA85152C4384801C
:103B70008283CD88A0F84050038470BD828B4FF2C1
:103B8000FF331A408283828B4FF6FF7303EA0123CF
:103B90001A4382837047F0B50C4615460022002177
:103BA0000026078C4EF6FF7C07EA0C070784828B01
:103BB000018C4FF6FF7707EA043640F6FF473A409C
:103BC0004FF6FF7707EA05273A434FF6FF7707EAF4
:103BD00003373A43D94FB8420ED0D94FB8420BD031
:103BE000B0F1804F08D0D74FB84205D0D64FB84279
:103BF00002D0D64FB84206D14DF6FF77394046F491
:103C00008057394305E047F6FF57394044F4805761
:103C1000394382830184F0BD828B4FF6F3731A40DF
:103C20008283828B0A4382837047F0B50C46154627
:103C3000002200210026078C4FF6FF6C07EA0C07D4
:103C40000784828B018C4FF6FF7707EA04264FF634
:103C50000C773A404FF6FF7707EA03172F433A43B2
:103C6000B64FB8420ED0B64FB8420BD0B0F1804F2D
:103C700008D0B44FB84205D0B34FB84202D0B34FCA
:103C8000B84206D14FF6FF57394046F480773943A2
:103C900005E04FF2FF57394044F48077394382837F
:103CA0000184F0BD028B4FF2FF331A400283028B76
:103CB0004FF6FF7303EA01231A4302837047F0B5FE
:103CC0000C461546002200210026078C4FF6EF7C9B
:103CD00007EA0C070784028B018C4FF6FF7707EA8F
:103CE000041640F6FF473A404FF6FF7707EA0337DE
:103CF0003A434FF6FF7707EA05273A438F4FB8421A
:103D00000ED08F4FB8420BD0B0F1804F08D08D4FFE
:103D1000B84205D08C4FB84202D08C4FB84206D181
:103D20004FF6DF77394046F01007394305E04FF68C
:103D30005F77394044F01007394302830184F0BDB6
:103D4000028B4FF6F3731A400283028B0A430283FD
:103D50007047F0B50C46154600220021068C4FF640
:103D6000FE773E400684028B018C4FF60C76324083
:103D70007E1C06EA03162E433243704EB0420ED02C
:103D80006F4EB0420BD0B0F1804F08D06D4EB042B4
:103D900005D06D4EB04202D06C4EB04206D14FF607
:103DA000FD76314044F00106314305E04FF6F576EB
:103DB000314044F00106314302830184F0BD70B507
:103DC00005460C465D4885420ED05D4885420BD0C5
:103DD000B5F1804F08D05B48854205D05A488542EE
:103DE00002D05A48854200D100E000BF208850B977
:103DF0002389A28861882846FFF7ABFFE18828461F
:103E0000FFF79EFF25E0208804280AD12389A28895
:103E100061882846FFF753FFE1882846FFF742FFF5
:103E200017E0208808280AD12389A28861882846BB
:103E3000FFF7FBFEE1882846FFF7EEFE09E0238945
:103E4000A28861882846FFF7A6FEE1882846FFF78A
:103E500095FE70BD2DE9F04105460C460026012770
:103E6000608808B9022600E00026A088012801D158
:103E7000022700E001272088A0B92389A288618851
:103E80002846FFF766FFE1882846FFF759FF238998
:103E90003A4631462846FFF712FFE1882846FFF7E9
:103EA00001FF13E02389A28861882846FFF707FFF6
:103EB000E1882846FFF7F6FE23893A463146284630
:103EC000FFF747FFE1882846FFF73AFFBDE8F0819A
:103ED0000A884B881A438B881A43CB881A430B896C
:103EE0001A434B891A438B891A43A0F84420704720
:103EF0004FF6FF71818000210180C18041800172F5
:103F000070470021018041808180C1800181418111
:103F10008181C18170470021018041800121818020
:103F20000021C18001817047002101804180818092
:103F3000C18001814181818170470000002C0140D6
:103F4000003401400004004000080040000C004024
:103F500021B1028842F00102028004E002884FF69B
:103F6000FE731A400280704731B1B0F8442042F429
:103F70000042A0F8442005E0B0F84420C2F30E024D
:103F8000A0F8442070471AB183890B43838102E073
:103F900083898B43838170478182704741EA0203A2
:103FA000A0F8483070471AB183890B43838102E03F
:103FB00083898B438381704701894FF6F8721140E2
:103FC000018170470A46002101894FF68F7319401D
:103FD00011430181704730B504460D4629462046FD
:103FE000FFF7F0FF208940F00700208130BD2DE968
:103FF000F04104460D4616461F46602D06D13B464D
:10400000012231462046FFF75AFE05E03B460122D9
:1040100031462046FFF79DFE29462046FFF7D2FF96
:10402000208940F007002081BDE8F08130B50C46C2
:1040300000210189C9B24FF6FF7505EA0325154332
:1040400025432943018130BD2DE9F04105460E4647
:1040500017469846002443463A4631462846FFF71D
:10406000E5FF2C894FF6F870044044F007044FF642
:104070008F70044044F070042C81BDE8F081F0B5ED
:1040800004460D4616461F463B4632462946204604
:10409000FFF7CCFF208940F480402081F0BD0185EE
:1040A000828270470A46002101884FF68F731940BB
:1040B000114301807047F0B50C4615461E4600219D
:1040C000002200230189028B038C4FF6F8773940D8
:1040D00021434FF6FC473A4040F201173A434FF66E
:1040E000DD773B404FF6FF7707EA06172F433B4348
:1040F000018102830384F0BD0A460021018B4FF643
:104100008F7319401143018370470A460021018BC8
:1041100048F6FF7319404FF6FF7303EA0223194371
:10412000018370470A460021818B4FF68F73194037
:104130001143818370470A460021818B48F6FF7343
:1041400019404FF6FF7303EA022319438183704736
:1041500021B1028842F08002028004E002884FF61A
:104160007F731A400280704721B1828842F00402B6
:10417000828004E082884FF6FB731A408280704789
:1041800021B1828842F00802828004E082884FF6E2
:10419000F7731A408280704721B1828842F0010291
:1041A000828004E082884FF6FE731A408280704756
:1041B0000A460021018B4FF6F77319401143018322
:1041C00070470A460021018B4FF2FF7319404FF6EA
:1041D000FF7303EA02231943018370470A46002153
:1041E000818B4FF6F77319401143818370470A465C
:1041F0000021818B4FF2FF7319404FF6FF7303EAE2
:1042000002231943818370470A460021018B4FF630
:10421000FB7319401143018370470A460021018B4B
:104220004FF6FF3319404FF6FF7303EA0223194399
:10423000018370470A460021818B4FF6FB731940BA
:104240001143818370470A460021818B4FF6FF336B
:1042500019404FF6FF7303EA022319438183704725
:104260000A460021018B4FF67F73194011430183E9
:1042700070470A460021018BC1F30E014FF6FF7310
:1042800003EA02231943018370470A460021818B08
:104290004FF67F7319401143818370470A4600210E
:1042A000818BC1F30E014FF6FF7303EA022319431A
:1042B000818370470A460021018C4FF6FD73194037
:1042C0001143018470470A460021018C4FF6F773B1
:1042D00019401143018470470A460021018C4FF6B2
:1042E000DF7319404FF6FF7303EA02131943018489
:1042F00070470A460021018C4FF67F7319404FF634
:10430000FF7303EA02131943018470470A46002130
:10431000018C4FF6FF5319404FF6FF7303EA022357
:104320001943018470470A460021018C4FF2FF7344
:1043300019404FF6FF7303EA0223194301847047C3
:104340000A460021018C4DF6FF7319404FF6FF73AA
:1043500003EA023319430184704730B50023012476
:104360008C40A3B2048C9C430484048C02FA01F5B3
:10437000ADB22C43048430BD30B5002304248C40FE
:10438000A3B2048C9C430484048C02FA01F5ADB200
:104390002C43048430BD70B5034600200024184629
:1043A000183001258D40ACB21D8CA5431D8409B188
:1043B000082909D100EB6100056825F0700505604A
:1043C0000568154305600EE00D1FC5F34E05284432
:1043D000056825F4E045056005684FF6FF7606EAB6
:1043E00002263543056070BD21B1028842F0020209
:1043F000028004E002884FF6FD731A400280704785
:1044000021B1028842F00402028004E002884FF6E3
:10441000FB731A400280704721B1828842F080020B
:10442000828004E082884FF67F731A408280704752
:1044300002884FF6F7731A40028002880A4302800E
:10444000704782884FF68F731A40828082880A43B1
:104450008280704702894FF6F8731A400281028900
:104460000A430281704702894FF67F731A40028126
:1044700002890A43028170478184704781857047B1
:10448000818670470187704781877047A0F8401088
:10449000704702884FF6FF431A40028002880A43A1
:1044A000028070470146888E70470146088F70472A
:1044B0000146888F70470146B1F8400070470146B9
:1044C000888C70470146088D704702460020138A89
:1044D0000B400BB1012000E000207047CA4302826C
:1044E000704730B50246002000230024158A05EAF3
:1044F0000103958905EA010413B10CB1012000E024
:10450000002030BDCA4302827047000070B50346E8
:104510000C4603E014F8015B03F8015B151EA2F1E1
:104520000102F7D170BD30B5034601E003F8011B6D
:10453000141EA2F10102F9D130BD00B55A494FF461
:104540003872C8680021FFF7EEFF57494FF4385220
:1045500088680021FFF7E7FF01205349087400BD78
:104560000022002106E05048C06830F8110000B178
:10457000521C491CB1F5B87FF5D3642050434FF469
:10458000B873B0FBF3F0C0B270472DE9F0410646B6
:104590000024A0464448007C10B94349086880477D
:1045A0001EB94FF0FF30BDE8F081C6F34F1506F09D
:1045B0001F0008B1681C85B240F26F141AE03A4837
:1045C000C06830F8140020B908F101001FFA80F823
:1045D00001E04FF00008A8450BD1002705E0324864
:1045E000C068E11920F811507F1CAF42F7D3600179
:1045F000D9E7641E002CE2DA4FF0FF30D3E770B544
:1046000005462948007C20B92749086880470120D1
:1046100070BDB5F5385F11D269092348C06830F81C
:104620001120002406E000201F4BDB680E1923F840
:104630001600641C9442F6DB0020E9E70220E7E75D
:1046400070B5044604B970BD17488068251A28461D
:10465000FFF7D5FF00BFF6E770B505462846FFF720
:1046600094FF0446601C08B9002070BD0E488068A5
:104670002044FAE770B506460C462046FFF785FF52
:104680000546681C08B9002070BD074989684819AB
:1046900022463146FFF73AFF3046FFF7D1FF024886
:1046A00080682844F0E700005800002010B5044658
:1046B0002CB90120F64909680882002010BDF5498F
:1046C000096808688047F24800680A30F6E710B5C4
:1046D000EF480068C078F0494978884213DCEC481C
:1046E0000068807878B9EA480068808858B9E84856
:1046F0000068C078E64909688872E6490968486830
:104700008047002010BD0220FCE710B504462CB9FC
:104710000120DF4909680882002010BDDD490968D1
:1047200088688047DA4800680C30F6E710B5D84B47
:104730001B68D978D64B1B685879D84B1B689A6987
:1047400090470446D2480068807AE8B13CB9D04826
:104750000068007918B9CE480068807808B1022056
:1047600010BD8CB9CB490968C8688047C848006843
:104770004079C7490968C872C5480068C078C4490B
:10478000096808730020EBE70220E9E710B504464A
:104790002CB90220BE4909680882002010BD002003
:1047A000BF490880BA480068007800F07F0018BB55
:1047B000B7490968487A00F0200131B1B849097851
:1047C00041F00201B64A117005E0B549097801F0DF
:1047D000FD01B34A117000F0400131B1B0490978D0
:1047E00041F00101AE4A117005E0AD49097801F0D0
:1047F000FE01AB4A11703AE0A5480068007800F06D
:104800007F00012801D1A648C8E7A14800680078C8
:1048100000F07F00022828D19D4A1268517901F0EA
:104820000F0001F080027AB19E4B03EB8002D2F8B8
:10483000002C02F03002102A16D1994A127842F068
:104840000102974B1A700FE0964B03EB8002D2F8EF
:10485000002C02F44052B2F5805F05D1904A1278E4
:1048600042F001028E4B1A7001E0002096E7894960
:104870000968086980478A4890E72DE9F04784482D
:104880000068007800F07F08B8F1000F0AD1804876
:104890000068407A00F0DF007D4909684872002016
:1048A000BDE8F087B8F1020F7ED1794800684088F2
:1048B00018B977480068007908B10220F0E7DFF8FE
:1048C000D89173480068477927F080052C467048D6
:1048D0000068407900F0800038B1724901EB840033
:1048E000D0F8000C00F0300606E06E4901EB8400C1
:1048F000D0F8000C00F4405699F80000A84204D902
:104900001EB163480068807A08B90220C8E707F042
:10491000800080B1634901EB8400D0F8000C00F006
:10492000300010284BD1E0B201F01DF8E0B2302188
:1049300000F09FFE43E05B4901EB8400D0F8000CDF
:1049400000F44050B0F5805F39D1E4B9564A92F88E
:104950002C10E0B201F091F8524A02EB8401D1F838
:10496000001C4BF68F7201EA020080F4805080F444
:10497000005040F4004141F080014A4B03EB8402B7
:10498000C2F8001C1BE0E0B200F0D5FF454A02EB84
:104990008401D1F8001C4BF68F7201EA020080F40A
:1049A000805080F4005000E00FE040F4004141F0FE
:1049B00080013C4B03EB8402C2F8001C00BF354968
:1049C00009684869804700206AE700BF022067E75E
:1049D0002DE9F0412E480068467926F080073C46D4
:1049E0002B480068407900F0800038B12D4901EB78
:1049F0008400D0F8000C00F0300506E0294901EBF6
:104A00008400D0F8000C00F4405523480078A04200
:104A100008D91F480068408820B91DB11C480068AB
:104A2000807A10B90220BDE8F08106F08000A0B1C4
:104A30001C4A02EB8401D1F8001C48F6BF7201EA5F
:104A4000020080F0100040F4004141F08001154B5D
:104A500003EB8402C2F8001C14E0124A02EB84014A
:104A6000D1F8001C4BF68F7201EA020080F48050EE
:104A700040F4004141F080010A4B03EB8402C2F88C
:104A8000001C00BF03490968886980470020CAE705
:104A90007400002080000020B00100207800002079
:104AA0006C00002000500040B401002010B5F74811
:104AB0000068407A40F02000F44909684872F449DF
:104AC0000968C8698047002010BD10B50246EF484C
:104AD0000068438A32B98888C01AEC4C2468208266
:104AE000002010BD08681844FBE72DE9F041E748B5
:104AF000006800F110042688A068C0B1BEB1A58886
:104B0000B54200D93546A8B2A16888470746208833
:104B1000401B2080608828446080002000F07FFFD8
:104B20008046AAB24146384600F03EFD00BF2088CC
:104B300050B14FF44050D74908800021084600F09A
:104B40007AFF3020D44908802088A188884204DB7D
:104B50000320CE490968087218E02088002804DD87
:104B60000520CA490968087210E0208870B906203B
:104B7000C649096808720021C848006880B2801CD4
:104B8000C74A42F810103020C3490880BDE8F081C0
:104B90002DE9F047BD48006800F110052E88BB489C
:104BA0000068077AD6B9042F18D1BE4800780128CA
:104BB0000FD10021B948006880B2801CB84A42F881
:104BC00010103020B449088000BF0020B54908709B
:104BD00003E007271020B049088027E0AC88A642F0
:104BE00001D8042000E002200746B44200D9344630
:104BF000A0B2A96888478046002000F005FF8146E2
:104C0000A2B24946404600F0B5FCA1B2002000F037
:104C100012FF2888001B2880688820446880302084
:104C20009D49088000029B49088000BF9749096898
:104C30000F72BDE8F08770B502269448006844788A
:104C400092480068007800F07F00002844D1092CC9
:104C500003D1FFF73CFD06465FE0052C14D18B48DD
:104C60000068C0787F280BDC88480068807838B9F5
:104C700086480068808818B984480068807A08B13E
:104C8000082565E0002648E0032C0ED17F48006827
:104C9000C078012807D17D480068808818B9FFF7DF
:104CA00005FF064639E0022637E0012C35D177486A
:104CB0000068C07801280DD174480068808848B920
:104CC00072480068407A00F0200018B1FFF7D5FD67
:104CD000064622E0022620E06C480068007800F0DA
:104CE0007F00012805D10B2C17D1FFF71FFD0646C9
:104CF00013E066480068007800F07F0002280BD1BE
:104D0000012C03D1FFF7B9FD064606E0032C04D1C0
:104D1000FFF75EFE064600E002264EB1E0B2624AB0
:104D20001268516988470646032E01D109250FE014
:104D30000EB108250CE0062500215848006880B215
:104D4000801C574A42F8101030205349088000BF99
:104D50004E4909680D7270BD2DE9F84F4B48006847
:104D600045780027BA46062D1BD1484800680078D0
:104D700000F07F00002813D1444909688878012891
:104D800003D149490968CF690AE0022803D146499D
:104D900009680F6A04E0032802D1434909684F6A91
:104DA000ADE0002D67D1394800684088002862D105
:104DB00036480068C08802285DD134480068007910
:104DC000002858D131480068007800F07F0030B9E1
:104DD0002E480068808810B9AFF24F678FE02B48EB
:104DE0000068007800F07F00012811D12749096888
:104DF00048792D4909688A690021904700287ED1A9
:104E000022480068807A002879D0AFF27F6776E088
:104E10001E480068007800F07F0002286FD11B4810
:104E20000068407900F00F0618480068407900F0EB
:104E3000700916480068407900F0800038B11B49BD
:104E400001EB8600D0F8000C00F0300806E01749AE
:104E500001EB8600D0F8000C00F4405814480078AC
:104E6000B0424CD9B9F1000F49D1B8F1000F46D08A
:104E7000AFF2E76743E0082D1CD1044800680078D2
:104E800000F07F00D8BBAFF2DB7738E07400002081
:104E9000800000208400002086000020505C00403C
:104EA000006000406E0000207800002000500040AC
:104EB000B00100200A2D22D1C5480068007800F01A
:104EC0007F0001281BD1C2480068807AB8B1C04871
:104ED0000068408898B9BE480068007978B9BC4835
:104EE0000068C08801280AD1B94909684879B949D8
:104EF00009688A690021904708B9AFF2F17757B184
:104F0000B3480068A0F812A0B1480068876100208B
:104F1000B84700240FE0AE4A12685078AD4A1268D4
:104F2000116988470446032C05D10920A84909685E
:104F30000872BDE8F88FA6480068008A4FF6FF7136
:104F4000884204D10920A24909680872F1E7022CBD
:104F500003D09F480068008A20B908209C4909684E
:104F60000872E6E79A480068007800F08000E0B335
:104F700097480068C088009095480068008A0099AA
:104F8000884204D9924900980968088223E0904831
:104F90000068008A8E490968C98888421BDA8C48F3
:104FA0000068008A8B49096891F82C10884203DA5E
:104FB0000020894908700EE085480068008A85490C
:104FC000096891F82C1090FBF1F201FB120010B966
:104FD0000120814908707F48006890F82C107C48B7
:104FE00000688182FFF7D4FD07E0FFE703207849DE
:104FF0000968087200037949088000BF99E710B575
:10500000774890F82C10002000F037FD70480068B9
:10501000007A082805D140027049088010207149A3
:1050200008806B480068007A092801D1012010BD72
:105030000020FCE738B501246B48006880B2001DF1
:105040006A4931F8100080B201EB400000906048DE
:105050000068007A092832D0009800785C49096815
:1050600008700098401C0090009800785849096822
:1050700048700098401C0090009800EB440000909D
:10508000009931F8020B009100F0A0FE5049096828
:105090004880009800EB44000090009931F8020B22
:1050A000009100F093FE4A4909688880009800EB5F
:1050B000440000900098008845490968C880012094
:1050C00043490968087242480068C08810B9FFF770
:1050D000B2FD01E0FFF740FEFFF791FF38BD30B5AC
:1050E0000146434B1A78002014E00306414C04EBC0
:1050F0009353D3F8003C48F68F74234048F2800461
:105100002343C4B2234304063A4D05EB9454C4F838
:10511000003C401C9042E8D341F08003324C241FF5
:10512000236030BD10B52A480068047A022C01D0F3
:10513000042C05D1FFF72CFD25480068047A1CE0FB
:10514000062C19D122480068407805280ED1204845
:105150000068007800F07F0040B91D490968C878F0
:10516000FFF7BDFF24490968086A804719490968A3
:1051700088688047082400E00824154909680C72F3
:10518000FFF73DFF10BD10B511480068047A022CEE
:1051900001D0042C01D1082412E0032C01D0052CED
:1051A00005D1FFF7A2FC0A480068047A08E0072C42
:1051B00005D108490968C8688047082400E0082428
:1051C000034909680C72FFF71AFF10BD7047000011
:1051D00074000020780000206E0000208400002071
:1051E000B401002086000020505C004000600040B8
:1051F000B0010020005000408000002010B5084899
:1052000008490860022009680872074807490860D1
:10521000074808490860054909680868804710BDC3
:105220009848002074000020B4010020780000207D
:10523000E40100208000002008B50020009022E159
:10524000C448008800F00F00C34908700846007881
:1052500000287CD1C1480068C14908800846008800
:1052600000F03000BF490880BD48008800F440507D
:10527000BB490880B94909684BF6BF7201EA0200D0
:1052800080F4005080F0200040F4004141F08001A3
:10529000B24A1160AF48008800F0100090BB104681
:1052A000006848F60F71084011460860FFF73AFFA2
:1052B000AA4909684BF6BF7201EA0200A8490988A9
:1052C00001F4805109B180F48050A549098801F4A6
:1052D000005109B180F40050A249098801F0100181
:1052E00009B180F010009F49098801F0200109B13F
:1052F00080F0200081B241F4004141F08001974AE2
:10530000116008BDFFE79548006880B20090BDF8C5
:10531000000000F40060B0B390480068C0F30E00D5
:1053200048F68F7108408D490860FFF783FE8B496E
:1053300009684BF6BF7201EA02008949098801F445
:10534000805109B180F480508549098800E056E019
:1053500001F4005109B180F400508249098801F03C
:10536000100109B180F010007E49098801F0200188
:1053700009B180F0200081B241F4004141F0800188
:10538000764A1160BDE7FFE7BDF8000000F4004079
:10539000002878D071480068C0F30E0048F68F717D
:1053A00008406E490860FFF7EEFE6C4909684BF64D
:1053B000BF7201EA02006A49098801F4805109B10B
:1053C00080F480506649098801F4005109B180F4E5
:1053D00000506449098801F0100109B180F0100003
:1053E0006049098801F0200109B180F0200081B2F4
:1053F00041F4004141F08001584A116081E756486C
:105400000078594901EB8000D0F8000C80B2009080
:10541000BDF8000000F40040C0B14F48007801EB37
:105420008000D0F8000CC0F30E0048F68F710840E1
:10543000494909784C4A02EB8101C1F8000C464900
:105440000978491E494A52F821008047BDF80000FA
:1054500000F08000B8B140480078434901EB80007B
:10546000D0F8000C48F60F7108403B4909783E4AD5
:1054700002EB8101C1F8000C37490978491E3C4A0A
:1054800052F82100804735484430006880B23149E5
:10549000088000F4004000287FF4D2AE00BF30E75F
:1054A00010B500244AE047F6FF702C4944310860EB
:1054B0002848008800F00F00274908700846007847
:1054C000294901EB8000D0F8000C84B204F40040BC
:1054D000C8B12148007801EB8000D0F8000CC0F37F
:1054E0000E0048F68F7108401B4909781E4A02EBEE
:1054F0008101C1F8000C18490978491E1B4A52F86D
:10550000210080471AE004F08000B8B1124800780A
:10551000154901EB8000D0F8000C48F60F710840E7
:105520000D490978104A02EB8101C1F8000C0A49C3
:105530000978491E0E4A52F8210080470748443036
:10554000006880B20349088000F400400028AAD116
:1055500010BD00007001002070000020005C0040C1
:1055600084000020860000200050004090010020B0
:1055700074010020F0B5144604F1010C4FEA6C07E9
:10558000DFF848C00CEB41033D460AE00678401CBA
:1055900090F800C046EA0C2223F8022B9B1C401C0A
:1055A0006D1E002DF2D1F0BDF0B5561C7510074EE2
:1055B00006EB41042B4605E034F8047B20F8017B20
:1055C000401C5B1E002BF7D1F0BD000000600040C6
:1055D000FA4908607047F948006880B27047F74997
:1055E000091D08607047F548001D006880B27047CB
:1055F000F2480830006880B27047F0490C3108600A
:105600007047EE480C30006880B270474FF6F87172
:105610000140EA4A103211607047E84810300068D3
:1056200080B27047E64B03EB8002C2F8001C704763
:105630000146E34A02EB8100D0F8000C80B27047CB
:1056400010B5DF4B03EB8002D2F8002C48F68F1325
:105650001A400A43DA4C04EB8003C3F8002C10BD57
:105660000146D74A02EB8100D0F8000C00F4C0607C
:10567000704730B5D24C04EB8003D3F8003C48F6B9
:10568000BF7403EA040201F010030BB182F01002B0
:1056900001F020030BB182F0200242F4004343F0FA
:1056A0008003C74D05EB8004C4F8003C30BD30B525
:1056B000C34C04EB8003D3F8003C4BF68F7403EA31
:1056C000040201F480530BB182F4805201F40053C0
:1056D0000BB182F4005242F4004343F08003B84D12
:1056E00005EB8004C4F8003C30BD30B503460C46E1
:1056F0001846FFF79DFF0546012C07D125F4805081
:10570000AF4A02EB8301C1F8000C08E0022C06D17D
:1057100025F01000AA4A02EB8301C1F8000C30BD4D
:105720000146A74A02EB8100D0F8000C00F03000DF
:1057300070470146A24A02EB8100D0F8000C00F449
:105740004050704710B59E4B03EB8002D2F8002CFE
:1057500048F6BF7302EA030181F0100181F02001D5
:1057600041F4004242F08002954C04EB8003C3F800
:10577000002C10BD10B5924B03EB8002D2F8002C28
:105780004BF68F7302EA030181F4805181F40051DA
:1057900041F4004242F08002894C04EB8003C3F8DC
:1057A000002C10BD864A02EB8001D1F8001C41F4A8
:1057B000807148F68F72114048F280021143804B8D
:1057C00003EB8002C2F8001C70477D4A02EB8001A7
:1057D000D1F8001C48F68F62114048F28002114354
:1057E000774B03EB8002C2F8001C7047744A02EB4F
:1057F0008001D1F8001C48F68F62114048F2800207
:1058000011436F4B03EB8002C2F8001C70476C4AD7
:1058100002EB8001D1F8001C41F4807148F68F72D0
:10582000114048F280021143654B03EB8002C2F83D
:10583000001C7047624A02EB8001D1F8001C41F461
:10584000807148F68F72114048F2800211435C4B20
:1058500003EB8002C2F8001C7047594A02EB80013A
:10586000D1F8001C48F68F62114048F280021143C3
:10587000534B03EB8002C2F8001C70470146504AAC
:1058800002EB8100D0F8000C00F03000102801D1AC
:10589000012070470020FCE70146494A02EB8100E5
:1058A000D0F8000C00F44050B0F5805F01D1012029
:1058B00070470020FCE7424A02EB8001D1F8001C4F
:1058C000C1F30E0148F68F7211403D4B03EB80028D
:1058D000C2F8001C70473A4A02EB8001D1F8001C64
:1058E00048F60F721140364B03EB8002C2F8001CE1
:1058F0007047334A02EB8001D1F8001C48F68F72E2
:1059000011404CF2800211432D4B03EB8002C2F890
:10591000001C70472A4A02EB8001D1F8001C48F6AF
:105920008F72114048F2C0021143254B03EB8002F5
:10593000C2F8001C7047224A02EB8001D1F8001C1B
:1059400001F4804171B102EB8001D1F8001C48F6EE
:105950008F7211404CF280021143194B03EB80020D
:10596000C2F8001C7047164A02EB8001D1F8001CF7
:1059700001F0400171B102EB8001D1F8001C48F642
:105980008F72114048F2C00211430D4B03EB8002AD
:10599000C2F8001C704710B5094B03EB8002D2F827
:1059A000002C48F68F731A4048F280031A430A43CA
:1059B000034C04EB8003C3F8002C10BD405C004096
:1059C000005000400146FC4A02EB8100D0F8000C78
:1059D00000F00F00704710B54A105200F74B1B68DB
:1059E0009BB203EBC003F64C44F8132010BD10B576
:1059F0004A105300F14A126892B202EBC002121D23
:105A0000EF4C44F8123010BD0146EC48006880B2FB
:105A100000EBC100EA4A32F8100080B2704701463C
:105A2000E648006880B200EBC100001DE44A32F88D
:105A3000100080B27047E14A126892B202EBC002D5
:105A4000921CDF4B43F81210704702463E290BDDD3
:105A5000481101F01F030BB9431E98B24FF40043E5
:105A600043EA8023136007E0481001F001030BB103
:105A7000431C98B283021360704710B50246CF48AA
:105A8000006880B200EBC200801DCD4C04EB4003E7
:105A90003E290BDD481101F01F040CB9441EA0B2D1
:105AA0004FF4004444EA80241C6007E0481001F0F1
:105AB00001040CB1441CA0B284021C6010BD01465C
:105AC000BE48006880B200EBC100801CBC4A32F8BE
:105AD0001000C0F3090070470146B848006880B262
